{
  "_format": "hh-sol-artifact-1",
  "contractName": "ArcBounty",
  "sourceName": "contracts/ArcBounty.sol",
  "abi": [
    {
      "inputs": [],
      "name": "AlreadyReviewed",
      "type": "error"
    },
    {
      "inputs": [],
      "name": "AlreadySubmitted",
      "type": "error"
    },
    {
      "inputs": [],
      "name": "BountyNotFound",
      "type": "error"
    },
    {
      "inputs": [],
      "name": "ClientCannotSubmit",
      "type": "error"
    },
    {
      "inputs": [],
      "name": "DeadlinePassed",
      "type": "error"
    },
    {
      "inputs": [],
      "name": "EmptyField",
      "type": "error"
    },
    {
      "inputs": [],
      "name": "InvalidDeadline",
      "type": "error"
    },
    {
      "inputs": [],
      "name": "InvalidRating",
      "type": "error"
    },
    {
      "inputs": [],
      "name": "InvalidReviewee",
      "type": "error"
    },
    {
      "inputs": [],
      "name": "MaxReached",
      "type": "error"
    },
    {
      "inputs": [],
      "name": "NoSubmissions",
      "type": "error"
    },
    {
      "inputs": [],
      "name": "NotClient",
      "type": "error"
    },
    {
      "inputs": [],
      "name": "NotClosed",
      "type": "error"
    },
    {
      "inputs": [],
      "name": "NotOpen",
      "type": "error"
    },
    {
      "inputs": [],
      "name": "NotParticipant",
      "type": "error"
    },
    {
      "inputs": [],
      "name": "SubmissionNotFound",
      "type": "error"
    },
    {
      "inputs": [],
      "name": "TransferFailed",
      "type": "error"
    },
    {
      "inputs": [],
      "name": "ZeroAmount",
      "type": "error"
    },
    {
      "anonymous": false,
      "inputs": [
        {
          "indexed": true,
          "internalType": "uint256",
          "name": "id",
          "type": "uint256"
        },
        {
          "indexed": true,
          "internalType": "address",
          "name": "client",
          "type": "address"
        },
        {
          "indexed": false,
          "internalType": "uint256",
          "name": "amount",
          "type": "uint256"
        }
      ],
      "name": "BountyCancelled",
      "type": "event"
    },
    {
      "anonymous": false,
      "inputs": [
        {
          "indexed": true,
          "internalType": "uint256",
          "name": "id",
          "type": "uint256"
        },
        {
          "indexed": true,
          "internalType": "address",
          "name": "client",
          "type": "address"
        },
        {
          "indexed": false,
          "internalType": "uint256",
          "name": "amount",
          "type": "uint256"
        },
        {
          "indexed": false,
          "internalType": "string",
          "name": "title",
          "type": "string"
        }
      ],
      "name": "BountyCreated",
      "type": "event"
    },
    {
      "anonymous": false,
      "inputs": [
        {
          "indexed": true,
          "internalType": "uint256",
          "name": "id",
          "type": "uint256"
        },
        {
          "indexed": true,
          "internalType": "address",
          "name": "reporter",
          "type": "address"
        }
      ],
      "name": "BountyDisputed",
      "type": "event"
    },
    {
      "anonymous": false,
      "inputs": [
        {
          "indexed": true,
          "internalType": "uint256",
          "name": "bountyId",
          "type": "uint256"
        },
        {
          "indexed": true,
          "internalType": "address",
          "name": "reviewer",
          "type": "address"
        },
        {
          "indexed": true,
          "internalType": "address",
          "name": "reviewee",
          "type": "address"
        },
        {
          "indexed": false,
          "internalType": "uint8",
          "name": "rating",
          "type": "uint8"
        },
        {
          "indexed": false,
          "internalType": "bool",
          "name": "fromClient",
          "type": "bool"
        }
      ],
      "name": "ReviewSubmitted",
      "type": "event"
    },
    {
      "anonymous": false,
      "inputs": [
        {
          "indexed": true,
          "internalType": "uint256",
          "name": "bountyId",
          "type": "uint256"
        },
        {
          "indexed": false,
          "internalType": "uint256",
          "name": "submissionId",
          "type": "uint256"
        },
        {
          "indexed": true,
          "internalType": "address",
          "name": "winner",
          "type": "address"
        },
        {
          "indexed": false,
          "internalType": "uint256",
          "name": "amount",
          "type": "uint256"
        }
      ],
      "name": "WorkApproved",
      "type": "event"
    },
    {
      "anonymous": false,
      "inputs": [
        {
          "indexed": true,
          "internalType": "uint256",
          "name": "bountyId",
          "type": "uint256"
        },
        {
          "indexed": false,
          "internalType": "uint256",
          "name": "submissionId",
          "type": "uint256"
        },
        {
          "indexed": true,
          "internalType": "address",
          "name": "contributor",
          "type": "address"
        }
      ],
      "name": "WorkSubmitted",
      "type": "event"
    },
    {
      "inputs": [
        {
          "internalType": "uint256",
          "name": "bountyId",
          "type": "uint256"
        },
        {
          "internalType": "uint256",
          "name": "submissionId",
          "type": "uint256"
        }
      ],
      "name": "approveWork",
      "outputs": [],
      "stateMutability": "nonpayable",
      "type": "function"
    },
    {
      "inputs": [
        {
          "internalType": "uint256",
          "name": "bountyId",
          "type": "uint256"
        }
      ],
      "name": "cancelBounty",
      "outputs": [],
      "stateMutability": "nonpayable",
      "type": "function"
    },
    {
      "inputs": [
        {
          "internalType": "string",
          "name": "title",
          "type": "string"
        },
        {
          "internalType": "string",
          "name": "description",
          "type": "string"
        },
        {
          "internalType": "string",
          "name": "category",
          "type": "string"
        },
        {
          "internalType": "uint256",
          "name": "deadline",
          "type": "uint256"
        },
        {
          "internalType": "uint256",
          "name": "maxSubmissions",
          "type": "uint256"
        }
      ],
      "name": "createBounty",
      "outputs": [],
      "stateMutability": "payable",
      "type": "function"
    },
    {
      "inputs": [],
      "name": "getAllBounties",
      "outputs": [
        {
          "components": [
            {
              "internalType": "uint256",
              "name": "id",
              "type": "uint256"
            },
            {
              "internalType": "address",
              "name": "client",
              "type": "address"
            },
            {
              "internalType": "uint256",
              "name": "amount",
              "type": "uint256"
            },
            {
              "internalType": "string",
              "name": "title",
              "type": "string"
            },
            {
              "internalType": "string",
              "name": "description",
              "type": "string"
            },
            {
              "internalType": "string",
              "name": "category",
              "type": "string"
            },
            {
              "internalType": "uint256",
              "name": "deadline",
              "type": "uint256"
            },
            {
              "internalType": "uint256",
              "name": "maxSubmissions",
              "type": "uint256"
            },
            {
              "internalType": "uint256",
              "name": "createdAt",
              "type": "uint256"
            },
            {
              "internalType": "uint256",
              "name": "closedAt",
              "type": "uint256"
            },
            {
              "internalType": "enum ArcBounty.Status",
              "name": "status",
              "type": "uint8"
            }
          ],
          "internalType": "struct ArcBounty.Bounty[]",
          "name": "",
          "type": "tuple[]"
        }
      ],
      "stateMutability": "view",
      "type": "function"
    },
    {
      "inputs": [
        {
          "internalType": "address",
          "name": "client",
          "type": "address"
        }
      ],
      "name": "getBountiesByClient",
      "outputs": [
        {
          "components": [
            {
              "internalType": "uint256",
              "name": "id",
              "type": "uint256"
            },
            {
              "internalType": "address",
              "name": "client",
              "type": "address"
            },
            {
              "internalType": "uint256",
              "name": "amount",
              "type": "uint256"
            },
            {
              "internalType": "string",
              "name": "title",
              "type": "string"
            },
            {
              "internalType": "string",
              "name": "description",
              "type": "string"
            },
            {
              "internalType": "string",
              "name": "category",
              "type": "string"
            },
            {
              "internalType": "uint256",
              "name": "deadline",
              "type": "uint256"
            },
            {
              "internalType": "uint256",
              "name": "maxSubmissions",
              "type": "uint256"
            },
            {
              "internalType": "uint256",
              "name": "createdAt",
              "type": "uint256"
            },
            {
              "internalType": "uint256",
              "name": "closedAt",
              "type": "uint256"
            },
            {
              "internalType": "enum ArcBounty.Status",
              "name": "status",
              "type": "uint8"
            }
          ],
          "internalType": "struct ArcBounty.Bounty[]",
          "name": "",
          "type": "tuple[]"
        }
      ],
      "stateMutability": "view",
      "type": "function"
    },
    {
      "inputs": [
        {
          "internalType": "uint256",
          "name": "id",
          "type": "uint256"
        }
      ],
      "name": "getBounty",
      "outputs": [
        {
          "components": [
            {
              "internalType": "uint256",
              "name": "id",
              "type": "uint256"
            },
            {
              "internalType": "address",
              "name": "client",
              "type": "address"
            },
            {
              "internalType": "uint256",
              "name": "amount",
              "type": "uint256"
            },
            {
              "internalType": "string",
              "name": "title",
              "type": "string"
            },
            {
              "internalType": "string",
              "name": "description",
              "type": "string"
            },
            {
              "internalType": "string",
              "name": "category",
              "type": "string"
            },
            {
              "internalType": "uint256",
              "name": "deadline",
              "type": "uint256"
            },
            {
              "internalType": "uint256",
              "name": "maxSubmissions",
              "type": "uint256"
            },
            {
              "internalType": "uint256",
              "name": "createdAt",
              "type": "uint256"
            },
            {
              "internalType": "uint256",
              "name": "closedAt",
              "type": "uint256"
            },
            {
              "internalType": "enum ArcBounty.Status",
              "name": "status",
              "type": "uint8"
            }
          ],
          "internalType": "struct ArcBounty.Bounty",
          "name": "",
          "type": "tuple"
        }
      ],
      "stateMutability": "view",
      "type": "function"
    },
    {
      "inputs": [
        {
          "internalType": "address",
          "name": "user",
          "type": "address"
        }
      ],
      "name": "getReviewsReceived",
      "outputs": [
        {
          "components": [
            {
              "internalType": "uint256",
              "name": "bountyId",
              "type": "uint256"
            },
            {
              "internalType": "address",
              "name": "reviewer",
              "type": "address"
            },
            {
              "internalType": "address",
              "name": "reviewee",
              "type": "address"
            },
            {
              "internalType": "uint8",
              "name": "rating",
              "type": "uint8"
            },
            {
              "internalType": "string",
              "name": "comment",
              "type": "string"
            },
            {
              "internalType": "uint256",
              "name": "createdAt",
              "type": "uint256"
            },
            {
              "internalType": "bool",
              "name": "fromClient",
              "type": "bool"
            }
          ],
          "internalType": "struct ArcBounty.Review[]",
          "name": "",
          "type": "tuple[]"
        }
      ],
      "stateMutability": "view",
      "type": "function"
    },
    {
      "inputs": [
        {
          "internalType": "uint256",
          "name": "id",
          "type": "uint256"
        }
      ],
      "name": "getSubmissions",
      "outputs": [
        {
          "components": [
            {
              "internalType": "uint256",
              "name": "id",
              "type": "uint256"
            },
            {
              "internalType": "address",
              "name": "contributor",
              "type": "address"
            },
            {
              "internalType": "string",
              "name": "url",
              "type": "string"
            },
            {
              "internalType": "uint256",
              "name": "submittedAt",
              "type": "uint256"
            },
            {
              "internalType": "bool",
              "name": "approved",
              "type": "bool"
            }
          ],
          "internalType": "struct ArcBounty.Submission[]",
          "name": "",
          "type": "tuple[]"
        }
      ],
      "stateMutability": "view",
      "type": "function"
    },
    {
      "inputs": [
        {
          "internalType": "address",
          "name": "user",
          "type": "address"
        }
      ],
      "name": "getUserStats",
      "outputs": [
        {
          "components": [
            {
              "internalType": "uint256",
              "name": "jobsCompleted",
              "type": "uint256"
            },
            {
              "internalType": "uint256",
              "name": "jobsPosted",
              "type": "uint256"
            },
            {
              "internalType": "uint256",
              "name": "totalEarned",
              "type": "uint256"
            },
            {
              "internalType": "uint256",
              "name": "totalPaid",
              "type": "uint256"
            },
            {
              "internalType": "uint256",
              "name": "ratingSum",
              "type": "uint256"
            },
            {
              "internalType": "uint256",
              "name": "ratingCount",
              "type": "uint256"
            }
          ],
          "internalType": "struct ArcBounty.UserStats",
          "name": "",
          "type": "tuple"
        }
      ],
      "stateMutability": "view",
      "type": "function"
    },
    {
      "inputs": [],
      "name": "getUsers",
      "outputs": [
        {
          "internalType": "address[]",
          "name": "",
          "type": "address[]"
        }
      ],
      "stateMutability": "view",
      "type": "function"
    },
    {
      "inputs": [
        {
          "internalType": "uint256",
          "name": "bountyId",
          "type": "uint256"
        },
        {
          "internalType": "address",
          "name": "user",
          "type": "address"
        }
      ],
      "name": "hasReviewed",
      "outputs": [
        {
          "internalType": "bool",
          "name": "",
          "type": "bool"
        }
      ],
      "stateMutability": "view",
      "type": "function"
    },
    {
      "inputs": [
        {
          "internalType": "uint256",
          "name": "id",
          "type": "uint256"
        },
        {
          "internalType": "address",
          "name": "user",
          "type": "address"
        }
      ],
      "name": "hasSubmitted",
      "outputs": [
        {
          "internalType": "bool",
          "name": "",
          "type": "bool"
        }
      ],
      "stateMutability": "view",
      "type": "function"
    },
    {
      "inputs": [
        {
          "internalType": "uint256",
          "name": "bountyId",
          "type": "uint256"
        }
      ],
      "name": "markDisputed",
      "outputs": [],
      "stateMutability": "nonpayable",
      "type": "function"
    },
    {
      "inputs": [
        {
          "internalType": "uint256",
          "name": "bountyId",
          "type": "uint256"
        },
        {
          "internalType": "address",
          "name": "reviewee",
          "type": "address"
        },
        {
          "internalType": "uint8",
          "name": "rating",
          "type": "uint8"
        },
        {
          "internalType": "string",
          "name": "comment",
          "type": "string"
        }
      ],
      "name": "submitReview",
      "outputs": [],
      "stateMutability": "nonpayable",
      "type": "function"
    },
    {
      "inputs": [
        {
          "internalType": "uint256",
          "name": "bountyId",
          "type": "uint256"
        },
        {
          "internalType": "string",
          "name": "url",
          "type": "string"
        }
      ],
      "name": "submitWork",
      "outputs": [],
      "stateMutability": "nonpayable",
      "type": "function"
    },
    {
      "inputs": [],
      "name": "totalBounties",
      "outputs": [
        {
          "internalType": "uint256",
          "name": "",
          "type": "uint256"
        }
      ],
      "stateMutability": "view",
      "type": "function"
    },
    {
      "inputs": [
        {
          "internalType": "uint256",
          "name": "id",
          "type": "uint256"
        }
      ],
      "name": "winnerOf",
      "outputs": [
        {
          "internalType": "address",
          "name": "",
          "type": "address"
        }
      ],
      "stateMutability": "view",
      "type": "function"
    }
  ],
  "bytecode": "0x608060405234801561001057600080fd5b50612842806100206000396000f3fe6080604052600436106100fd5760003560e01c80637c7198cc11610095578063ab643c0711610064578063ab643c0714610341578063c5df043114610356578063da8accf914610376578063e5e5dff114610396578063ee8c4bbf146103b657600080fd5b80637c7198cc1461027557806385feeb23146102a55780638cb5d700146102c3578063a57d3806146102fb57600080fd5b8063314b6835116100d1578063314b68351461019c5780633c6bdab3146101bc5780634e43603a146101dc5780635a57e4201461024857600080fd5b8062ce8e3e146101025780631524e11b1461012d57806316c53ced146101425780631d4f61901461016f575b600080fd5b34801561010e57600080fd5b506101176103e3565b6040516101249190612073565b60405180910390f35b61014061013b366004612109565b610445565b005b34801561014e57600080fd5b5061016261015d3660046121b2565b61073f565b6040516101249190612211565b34801561017b57600080fd5b5061018f61018a3660046122cf565b610882565b60405161012491906123e4565b3480156101a857600080fd5b506101406101b73660046121b2565b610bfe565b3480156101c857600080fd5b506101406101d7366004612446565b610d61565b3480156101e857600080fd5b506101fc6101f73660046122cf565b6110c9565b6040516101249190600060c082019050825182526020830151602083015260408301516040830152606083015160608301526080830151608083015260a083015160a083015292915050565b34801561025457600080fd5b506102686102633660046122cf565b611164565b60405161012491906124bd565b34801561028157600080fd5b50610295610290366004612578565b6112c2565b6040519015158152602001610124565b3480156102b157600080fd5b50600054604051908152602001610124565b3480156102cf57600080fd5b506102e36102de3660046121b2565b6112fc565b6040516001600160a01b039091168152602001610124565b34801561030757600080fd5b50610295610316366004612578565b60009182526003602090815260408084206001600160a01b0393909316845291905290205460ff1690565b34801561034d57600080fd5b5061018f611324565b34801561036257600080fd5b506101406103713660046125a4565b611619565b34801561038257600080fd5b506101406103913660046125c6565b611906565b3480156103a257600080fd5b506101406103b13660046121b2565b611ba8565b3480156103c257600080fd5b506103d66103d13660046121b2565b611ce5565b6040516101249190612612565b6060600880548060200260200160405190810160405280929190818152602001828054801561043b57602002820191906000526020600020905b81546001600160a01b0316815260019091019060200180831161041d575b5050505050905090565b3460000361046657604051631f2a200560e01b815260040160405180910390fd5b600087900361048857604051630103b55560e71b815260040160405180910390fd5b60008590036104aa57604051630103b55560e71b815260040160405180910390fd5b81158015906104b95750428211155b156104d757604051631da7447960e21b815260040160405180910390fd5b6104e033611f42565b336000908152600760205260408120600190810180549192909161050590849061263b565b90915550506000805481806105198361264e565b919050559050604051806101600160405280828152602001336001600160a01b031681526020013481526020018a8a8080601f016020809104026020016040519081016040528093929190818152602001838380828437600092019190915250505090825250604080516020601f8b0181900481028201810190925289815291810191908a908a9081908401838280828437600092019190915250505090825250604080516020601f890181900481028201810190925287815291810191908890889081908401838280828437600092018290525093855250505060208201869052604082018590524260608301526080820181905260a090910152600082815260016020818152604092839020845181559084015191810180546001600160a01b0319166001600160a01b03909316929092179091559082015160028201556060820151600382019061066d9082612700565b50608082015160048201906106829082612700565b5060a082015160058201906106979082612700565b5060c0820151600682015560e0820151600782015561010082015160088201556101208201516009820155610140820151600a8201805460ff191660018360038111156106e6576106e66122f1565b0217905550905050336001600160a01b0316817faa830c985894057f0d100743defcad006f0a1abc40d080c9a23acc9a81106849348c8c60405161072c939291906127c0565b60405180910390a3505050505050505050565b606060026000838152602001908152602001600020805480602002602001604051908101604052809291908181526020016000905b828210156108775760008481526020908190206040805160a081018252600586029092018054835260018101546001600160a01b031693830193909352600283018054929392918401916107c79061267d565b80601f01602080910402602001604051908101604052809291908181526020018280546107f39061267d565b80156108405780601f1061081557610100808354040283529160200191610840565b820191906000526020600020905b81548152906001019060200180831161082357829003601f168201915b5050509183525050600382015460208083019190915260049092015460ff1615156040909101529082526001929092019101610774565b505050509050919050565b60606000805b6000548110156108d757600081815260016020819052604090912001546001600160a01b038086169116036108c557816108c18161264e565b9250505b806108cf8161264e565b915050610888565b5060008167ffffffffffffffff8111156108f3576108f3612667565b60405190808252806020026020018201604052801561092c57816020015b610919612000565b8152602001906001900390816109115790505b5090506000805b600054811015610bf457600081815260016020819052604090912001546001600160a01b03808816911603610be25760008181526001602081815260409283902083516101608101855281548152928101546001600160a01b0316918301919091526002810154928201929092526003820180549192916060840191906109b99061267d565b80601f01602080910402602001604051908101604052809291908181526020018280546109e59061267d565b8015610a325780601f10610a0757610100808354040283529160200191610a32565b820191906000526020600020905b815481529060010190602001808311610a1557829003601f168201915b50505050508152602001600482018054610a4b9061267d565b80601f0160208091040260200160405190810160405280929190818152602001828054610a779061267d565b8015610ac45780601f10610a9957610100808354040283529160200191610ac4565b820191906000526020600020905b815481529060010190602001808311610aa757829003601f168201915b50505050508152602001600582018054610add9061267d565b80601f0160208091040260200160405190810160405280929190818152602001828054610b099061267d565b8015610b565780601f10610b2b57610100808354040283529160200191610b56565b820191906000526020600020905b815481529060010190602001808311610b3957829003601f168201915b505050918352505060068201546020820152600782015460408201526008820154606082015260098201546080820152600a82015460a09091019060ff166003811115610ba557610ba56122f1565b6003811115610bb657610bb66122f1565b9052508383610bc48161264e565b945081518110610bd657610bd66127f6565b60200260200101819052505b80610bec8161264e565b915050610933565b5090949350505050565b6000610c0982611fcb565b90506000600a82015460ff166003811115610c2657610c266122f1565b14610c4457604051631bb5f5b360e31b815260040160405180910390fd5b6000828152600260205260408120549003610c725760405163aa71014560e01b815260040160405180910390fd5b60018101546001600160a01b0316331480610d025760005b600084815260026020526040902054811015610d00576000848152600260205260409020805433919083908110610cc357610cc36127f6565b60009182526020909120600160059092020101546001600160a01b031603610cee5760019150610d00565b80610cf88161264e565b915050610c8a565b505b80610d205760405163721c7c6760e11b815260040160405180910390fd5b600a8201805460ff19166003179055604051339084907f034b0cb2bd714ae7a64eaa3a8860c50d0f7638e6e5ac23f586bcfe3bbd30038e90600090a3505050565b6000610d6c86611fcb565b90506001600a82015460ff166003811115610d8957610d896122f1565b14610da7576040516345a5a96f60e11b815260040160405180910390fd5b60018460ff161080610dbc575060058460ff16115b15610dda5760405163d29df2dd60e01b815260040160405180910390fd5b600086815260056020908152604080832033845290915290205460ff1615610e15576040516396c3b41160e01b815260040160405180910390fd5b60008681526004602052604081205460018301546001600160a01b0391821692911633148015610e565750816001600160a01b0316876001600160a01b0316145b90506000336001600160a01b038416148015610e81575060018401546001600160a01b038981169116145b905081158015610e8f575080155b15610ead5760405163015c2e1f60e21b815260040160405180910390fd5b610eb688611f42565b600089815260056020908152604080832033808552908352818420805460ff191660011790556001600160a01b038c168085526006845293829020825160e0810184528e8152808501929092528183019490945260ff8b1660608201528151601f8a01849004840281018401909252888252916080830191908a908a9081908401838280828437600092018290525093855250504260208085019190915287151560409485015285546001818101885596845292819020855160069094020192835584015194820180546001600160a01b039687166001600160a01b03199091161790555090820151600282018054606085015160ff16600160a01b026001600160a81b031990911692909516919091179390931790925560808101519091906003820190610fe59082612700565b5060a082015160048281019190915560c0909201516005909101805460ff19169115159190911790556001600160a01b0389166000908152600760205260408120909101805460ff8a16929061103c90849061263b565b90915550506001600160a01b038816600090815260076020526040812060050180546001929061106d90849061263b565b90915550506040805160ff8916815283151560208201526001600160a01b038a169133918c917fe8373191d2cae55753fb17a18a47d897c3704bded0da08b8957958e730e4c625910160405180910390a4505050505050505050565b6111026040518060c001604052806000815260200160008152602001600081526020016000815260200160008152602001600081525090565b506001600160a01b0316600090815260076020908152604091829020825160c08101845281548152600182015492810192909252600281015492820192909252600382015460608201526004820154608082015260059091015460a082015290565b6001600160a01b0381166000908152600660209081526040808320805482518185028101850190935280835260609492939192909184015b828210156108775760008481526020908190206040805160e081018252600686029092018054835260018101546001600160a01b0390811694840194909452600281015493841691830191909152600160a01b90920460ff1660608201526003820180549192916080840191906112129061267d565b80601f016020809104026020016040519081016040528092919081815260200182805461123e9061267d565b801561128b5780601f106112605761010080835404028352916020019161128b565b820191906000526020600020905b81548152906001019060200180831161126e57829003601f168201915b5050509183525050600482015460208083019190915260059092015460ff161515604090910152908252600192909201910161119c565b60006112cd83611fcb565b505060008281526005602090815260408083206001600160a01b038516845290915290205460ff165b92915050565b600061130782611fcb565b50506000908152600460205260409020546001600160a01b031690565b60606000805467ffffffffffffffff81111561134257611342612667565b60405190808252806020026020018201604052801561137b57816020015b611368612000565b8152602001906001900390816113605790505b50905060005b6000548110156116135760008181526001602081815260409283902083516101608101855281548152928101546001600160a01b0316918301919091526002810154928201929092526003820180549192916060840191906113e29061267d565b80601f016020809104026020016040519081016040528092919081815260200182805461140e9061267d565b801561145b5780601f106114305761010080835404028352916020019161145b565b820191906000526020600020905b81548152906001019060200180831161143e57829003601f168201915b505050505081526020016004820180546114749061267d565b80601f01602080910402602001604051908101604052809291908181526020018280546114a09061267d565b80156114ed5780601f106114c2576101008083540402835291602001916114ed565b820191906000526020600020905b8154815290600101906020018083116114d057829003601f168201915b505050505081526020016005820180546115069061267d565b80601f01602080910402602001604051908101604052809291908181526020018280546115329061267d565b801561157f5780601f106115545761010080835404028352916020019161157f565b820191906000526020600020905b81548152906001019060200180831161156257829003601f168201915b505050918352505060068201546020820152600782015460408201526008820154606082015260098201546080820152600a82015460a09091019060ff1660038111156115ce576115ce6122f1565b60038111156115df576115df6122f1565b815250508282815181106115f5576115f56127f6565b6020026020010181905250808061160b9061264e565b915050611381565b50919050565b600061162483611fcb565b60018101549091506001600160a01b0316331461165457604051630836f21d60e21b815260040160405180910390fd5b6000600a82015460ff16600381111561166f5761166f6122f1565b1461168d57604051631bb5f5b360e31b815260040160405180910390fd5b60008381526002602052604081205490036116bb5760405163aa71014560e01b815260040160405180910390fd5b60008381526002602052604090205482106116e9576040516348f6fffd60e11b815260040160405180910390fd5b6000838152600260205260408120805484908110611709576117096127f6565b6000918252602080832060016005909302018201546002808701548986529252604090932080546001600160a01b03909416945090928690811061174f5761174f6127f6565b6000918252602080832060046005909302018201805494151560ff19958616179055888352526040902080546001600160a01b0385166001600160a01b0319909116179055600a8401805460019216828002179055504260098401556117b482611f42565b6001600160a01b03821660009081526007602052604081208054600192906117dd90849061263b565b90915550506001600160a01b0382166000908152600760205260408120600201805483929061180d90849061263b565b909155505060018301546001600160a01b03166000908152600760205260408120600301805483929061184190849061263b565b90915550506040516000906001600160a01b0384169083908381818185875af1925050503d8060008114611891576040519150601f19603f3d011682016040523d82523d6000602084013e611896565b606091505b50509050806118b8576040516312171d8360e31b815260040160405180910390fd5b60408051868152602081018490526001600160a01b0385169188917fc3c21a11ef910ed521e021fc3cbc1e0d79718c030ef782785f2504fbaa1679a8910160405180910390a3505050505050565b600061191184611fcb565b90506000600a82015460ff16600381111561192e5761192e6122f1565b1461194c57604051631bb5f5b360e31b815260040160405180910390fd5b60018101546001600160a01b0316330361197957604051630183599d60e11b815260040160405180910390fd5b600082900361199b57604051630103b55560e71b815260040160405180910390fd5b600084815260036020908152604080832033845290915290205460ff16156119d657604051639fbfc58960e01b815260040160405180910390fd5b6006810154158015906119ec5750806006015442115b15611a0a5760405163387b2e5560e11b815260040160405180910390fd5b600781015415801590611a2f5750600781015460008581526002602052604090205410155b15611a4d576040516366a662b960e01b815260040160405180910390fd5b611a5633611f42565b6000848152600260209081526040918290208054835160a08101855281815233818501528451601f880185900485028101850186528781529194929390928301919088908890819084018382808284376000920182905250938552505042602080850191909152604093840183905285546001808201885596845292819020855160059094020192835584015194820180546001600160a01b0319166001600160a01b039096169590951790945590820151919250906002820190611b1b9082612700565b5060608201516003808301919091556080909201516004909101805491151560ff199283161790556000878152602092835260408082203380845294529081902080549092166001179091555186907ff15792963411ea93d0dd51152416e388cb5a06c4cbc876be63620a5795bd340c90611b999085815260200190565b60405180910390a35050505050565b6000611bb382611fcb565b60018101549091506001600160a01b03163314611be357604051630836f21d60e21b815260040160405180910390fd5b6000600a82015460ff166003811115611bfe57611bfe6122f1565b14611c1c57604051631bb5f5b360e31b815260040160405180910390fd5b600281810154600a8301805460ff191690921790915560018201546040516000916001600160a01b03169083908381818185875af1925050503d8060008114611c81576040519150601f19603f3d011682016040523d82523d6000602084013e611c86565b606091505b5050905080611ca8576040516312171d8360e31b815260040160405180910390fd5b604051828152339085907fb9670bf4f2273686f771c9ab65309436df5ed75afa63eefec8b67640d8bcf72c9060200160405180910390a350505050565b611ced612000565b611cf682611fcb565b60408051610160810182528254815260018301546001600160a01b03166020820152600283015491810191909152600382018054919291606084019190611d3c9061267d565b80601f0160208091040260200160405190810160405280929190818152602001828054611d689061267d565b8015611db55780601f10611d8a57610100808354040283529160200191611db5565b820191906000526020600020905b815481529060010190602001808311611d9857829003601f168201915b50505050508152602001600482018054611dce9061267d565b80601f0160208091040260200160405190810160405280929190818152602001828054611dfa9061267d565b8015611e475780601f10611e1c57610100808354040283529160200191611e47565b820191906000526020600020905b815481529060010190602001808311611e2a57829003601f168201915b50505050508152602001600582018054611e609061267d565b80601f0160208091040260200160405190810160405280929190818152602001828054611e8c9061267d565b8015611ed95780601f10611eae57610100808354040283529160200191611ed9565b820191906000526020600020905b815481529060010190602001808311611ebc57829003601f168201915b505050918352505060068201546020820152600782015460408201526008820154606082015260098201546080820152600a82015460a09091019060ff166003811115611f2857611f286122f1565b6003811115611f3957611f396122f1565b90525092915050565b6001600160a01b03811660009081526009602052604090205460ff16611fc8576001600160a01b0381166000818152600960205260408120805460ff191660019081179091556008805491820181559091527ff3f7a9fe364faab93b216da50a3214154f22a0a2b415b23a84c8169e8b636ee30180546001600160a01b03191690911790555b50565b600080548210611fee576040516324ce57e760e21b815260040160405180910390fd5b50600090815260016020526040902090565b6040518061016001604052806000815260200160006001600160a01b0316815260200160008152602001606081526020016060815260200160608152602001600081526020016000815260200160008152602001600081526020016000600381111561206e5761206e6122f1565b905290565b6020808252825182820181905260009190848201906040850190845b818110156120b45783516001600160a01b03168352928401929184019160010161208f565b50909695505050505050565b60008083601f8401126120d257600080fd5b50813567ffffffffffffffff8111156120ea57600080fd5b60208301915083602082850101111561210257600080fd5b9250929050565b60008060008060008060008060a0898b03121561212557600080fd5b883567ffffffffffffffff8082111561213d57600080fd5b6121498c838d016120c0565b909a50985060208b013591508082111561216257600080fd5b61216e8c838d016120c0565b909850965060408b013591508082111561218757600080fd5b506121948b828c016120c0565b999c989b509699959896976060870135966080013595509350505050565b6000602082840312156121c457600080fd5b5035919050565b6000815180845260005b818110156121f1576020818501810151868301820152016121d5565b506000602082860101526020601f19601f83011685010191505092915050565b60006020808301818452808551808352604092508286019150828160051b87010184880160005b838110156122a557888303603f19018552815180518452878101516001600160a01b0316888501528681015160a088860181905290612279828701826121cb565b606084810151908801526080938401511515939096019290925250509386019390860190600101612238565b509098975050505050505050565b80356001600160a01b03811681146122ca57600080fd5b919050565b6000602082840312156122e157600080fd5b6122ea826122b3565b9392505050565b634e487b7160e01b600052602160045260246000fd5b6004811061232557634e487b7160e01b600052602160045260246000fd5b9052565b600061016082518452602083015161234c60208601826001600160a01b03169052565b5060408301516040850152606083015181606086015261236e828601826121cb565b9150506080830151848203608086015261238882826121cb565b91505060a083015184820360a08601526123a282826121cb565b91505060c083015160c085015260e083015160e085015261010080840151818601525061012080840151818601525061014080840151610bf482870182612307565b6000602080830181845280855180835260408601915060408160051b870101925083870160005b8281101561243957603f19888603018452612427858351612329565b9450928501929085019060010161240b565b5092979650505050505050565b60008060008060006080868803121561245e57600080fd5b8535945061246e602087016122b3565b9350604086013560ff8116811461248457600080fd5b9250606086013567ffffffffffffffff8111156124a057600080fd5b6124ac888289016120c0565b969995985093965092949392505050565b60006020808301818452808551808352604092508286019150828160051b87010184880160005b838110156122a557888303603f19018552815180518452878101516001600160a01b039081168986015287820151168785015260608082015160ff169085015260808082015160e08287018190529190612540838801826121cb565b9250505060a080830151818701525060c08083015192506125648187018415159052565b5095880195935050908601906001016124e4565b6000806040838503121561258b57600080fd5b8235915061259b602084016122b3565b90509250929050565b600080604083850312156125b757600080fd5b50508035926020909101359150565b6000806000604084860312156125db57600080fd5b83359250602084013567ffffffffffffffff8111156125f957600080fd5b612605868287016120c0565b9497909650939450505050565b6020815260006122ea6020830184612329565b634e487b7160e01b600052601160045260246000fd5b808201808211156112f6576112f6612625565b60006001820161266057612660612625565b5060010190565b634e487b7160e01b600052604160045260246000fd5b600181811c9082168061269157607f821691505b60208210810361161357634e487b7160e01b600052602260045260246000fd5b601f8211156126fb57600081815260208120601f850160051c810160208610156126d85750805b601f850160051c820191505b818110156126f7578281556001016126e4565b5050505b505050565b815167ffffffffffffffff81111561271a5761271a612667565b61272e81612728845461267d565b846126b1565b602080601f831160018114612763576000841561274b5750858301515b600019600386901b1c1916600185901b1785556126f7565b600085815260208120601f198616915b8281101561279257888601518255948401946001909101908401612773565b50858210156127b05787850151600019600388901b60f8161c191681555b5050505050600190811b01905550565b83815260406020820152816040820152818360608301376000818301606090810191909152601f909201601f1916010192915050565b634e487b7160e01b600052603260045260246000fdfea26469706673582212207daa0f00cb63cae2bf1305b289726a4498b85e1bae49437c9000f4d8c0a57e7764736f6c63430008140033",
  "linkReferences": {},
  "deployedLinkReferences": {}
}